:100000000C9446000C9465000C9465000C946500FB
:100010000C9465000C9465000C9465000C946500CC
:100020000C9465000C9465000C9465000C946500BC
:100030000C9465000C94BB010C9465000C94650055
:100040000C9465000C9465000C9465000C9465009C
:100050000C9465000C9465000C9465000C9465008C
:100060000C9465000C9465000C9465000C9465007C
:100070000C9465000C9465000C9465000C9465006C
:100080000C9465000C9465000C94650011241FBE4F
:10009000CFEFD0E4DEBFCDBF11E0A0E0B1E0E6E1FC
:1000A000F9E000E00BBF02C007900D92AA31B10742
:1000B000D9F721E0AAE1B1E001C01D92AC33B2074B
:1000C000E1F70E9497030C9489040C940000CF93ED
:1000D000DF9300D01F92CDB7DEB789837B836A831D
:1000E00089818A3031F48A819B81BC018DE00E9434
:1000F000670080EC90E0FC018081882F90E08072A6
:100100009927892BB1F386EC90E02981FC012083AB
:1001100080E090E00F900F900F90DF91CF910895C5
:10012000CF93DF9300D000D0CDB7DEB769837A8359
:100130008B839C8389819A81AB81BC8180930E01E2
:1001400090930F01A0931001B093110180910E01C3
:1001500090910F01A0911001B091110180931B01AA
:1001600090931C01A0931D01B0931E0100000F90FD
:100170000F900F900F90DF91CF910895CF93DF9361
:10018000CDB7DEB781E890E02BE0FC01208388E862
:1001900090E02DE730E0FC01318320838FE690E092
:1001A00022E0FC01208384E890E0FC0111821082AF
:1001B00080910E0190910F01A0911001B091110159
:1001C00080931B0190931C01A0931D01B0931E010D
:1001D0008FE590E02FE530E0F90120812068FC01F7
:1001E00020830000DF91CF910895CF93DF93CDB7A7
:1001F000DEB781E890E0FC0110820000DF91CF9132
:1002000008950F931F93CF93DF931F92CDB7DEB75F
:100210001982A6C08981282F30E0C901880F991F53
:10022000820F931F880F991F880F991F865D9E4F1D
:10023000FC0120813181428153818981682F70E0E6
:10024000CB01880F991F860F971F880F991F880F62
:10025000991F8A5D9E4FFC0180819181A281B381AB
:10026000281739074A075B0708F449C08981082F16
:1002700010E08981282F30E0C901880F991F820F73
:10028000931F880F991F880F991F825D9E4FFC0155
:10029000408151818981282F30E0C901880F991F41
:1002A000820F931F880F991F880F991F8C5D9E4F97
:1002B000FC0180819181FA0109959C01C801880F98
:1002C000991F800F911F880F991F880F991F8C5DB0
:1002D0009E4FFC01318320838981282F30E0C901A2
:1002E000880F991F820F931F880F991F880F991FDE
:1002F000865D9E4FFC0110821182128213828981D9
:10030000682F70E08981282F30E0C901880F991F7C
:10031000820F931F880F991F880F991F865D9E4F2C
:10032000FC0180819181A281B38121E030E040E035
:1003300050E0280F391F4A1F5B1FCB01880F991F00
:10034000860F971F880F991F880F991F865D9E4FF4
:10035000FC01208331834283538389818F5F8983AA
:100360008981823008F456CF00000F90DF91CF9141
:100370001F910F9108951F920F9200905F000F92AE
:10038000112400905B000F922F933F934F935F9344
:100390006F937F938F939F93AF93BF93EF93FF934D
:1003A000CF93DF93CDB7DEB780911B0190911C01F5
:1003B000A0911D01B0911E010197A109B10980937F
:1003C0001B0190931C01A0931D01B0931E0180910D
:1003D0001B0190911C01A0911D01B0911E01892B60
:1003E0008A2B8B2B91F40E94010180910E01909138
:1003F0000F01A0911001B091110180931B01909306
:100400001C01A0931D01B0931E010000DF91CF914C
:10041000FF91EF91BF91AF919F918F917F916F91DC
:100420005F914F913F912F910F9000925B000F9041
:1004300000925F000F901F901895CF93DF9300D02C
:10044000CDB7DEB79A8389838091120180931F0113
:1004500080911301809320018091140180932101E8
:10046000809115018093220189819A81892B19F04D
:100470001A82198201C0000089819A81892B09F0B2
:1004800009C09091230181E0992309F080E08093D5
:100490002301000088E290E020912301222F30E028
:1004A000215E3E4FF9012081FC0120838BE290E028
:1004B00020912301222F30E02F5D3E4FF901208152
:1004C000FC01208389819A810F900F90DF91CF9159
:1004D0000895CF93DF9300D0CDB7DEB79A83898399
:1004E00089819A818230910509F459C08330910540
:1004F00034F4009781F0019709F44CC08FC0843028
:10050000910509F456C0843091050CF44DC005974F
:1005100009F454C083C080E290E0FC018081882F00
:1005200090E081709927892B29F481E090E09A83EB
:10053000898377C080E290E0FC018081882F90E081
:1005400082709927892B29F482E090E09A8389832D
:1005500068C080E290E0FC018081882F90E0847088
:100560009927892B29F483E090E09A83898359C0E5
:1005700080E290E0FC018081882F90E088709927CC
:10058000892B29F484E090E09A8389834AC01A82F7
:10059000198247C085E090E09A83898342C085E054
:1005A00090E09A8389833DC085E090E09A838983B7
:1005B00038C085E090E09A83898333C080E290E080
:1005C000FC018081882F90E081709927892B09F1A7
:1005D00080E290E0FC018081882F90E08270992772
:1005E000892BB9F080E290E0FC018081882F90E0B7
:1005F00084709927892B69F080E290E0FC0180816A
:10060000882F90E088709927892B19F080E090E07E
:1006100002C085E090E09A83898303C01A82198220
:10062000000089819A818230910509F43EC08330AF
:1006300091053CF4009709F468C0019709F450C093
:100640006FC084309105E1F08430910524F0059766
:1006500009F45DC065C080911201893009F459C068
:10066000809113018F3009F454C080911201869556
:10067000809312018091130186958093130149C0E4
:1006800080911201803909F446C080911301803FA6
:1006900009F441C080911201880F8093120180916A
:1006A0001301880F8093130136C080911401813E9D
:1006B000A1F1809115018D3E81F180911401882F67
:1006C00090E0880F991F816080931401809115013B
:1006D000882F90E0880F991F8160809315011DC0BD
:1006E00080911401803FD9F080911501863FB9F0C7
:1006F0008091140186958068809314018091150182
:1007000086958068809315010AC0000009C000002A
:1007100007C0000005C0000003C0000001C00000C9
:1007200089819A810F900F90DF91CF910895CF9397
:10073000DF931F92CDB7DEB781E290E0FC0110821B
:1007400082E290E02FEFFC01208387E290E02FEF20
:10075000FC01208388E290E0FC0110828AE290E0B4
:100760002FEFFC0120838BE290E0FC0110821982C4
:100770008981282F30E0C901880F991F820F931FAC
:10078000880F991F880F991F8C5D9E4FFC01118265
:1007900010828981682F70E021E030E040E050E075
:1007A000CB01880F991F860F971F880F991F880FFD
:1007B000991F8A5D9E4FFC012083318342835383BE
:1007C0008981682F70E08981282F30E0C901880F66
:1007D000991F820F931F880F991F880F991F8A5D99
:1007E0009E4FFC012081318142815381CB01880FD2
:1007F000991F860F971F880F991F880F991F865D75
:100800009E4FFC0120833183428353838981282FAB
:1008100030E0C901880F991F820F931F880F991F1D
:10082000880F991F825D9E4F2DE132E0FC013183DC
:10083000208389818F5F89838981282F30E0C901D6
:10084000880F991F820F931F880F991F880F991F78
:100850008C5D9E4FFC01118210828981282F30E02F
:10086000C901880F991F820F931F880F991F880F46
:10087000991F9C012A5D3E4F84E190E0A0E0B0E02A
:10088000F90180839183A283B3838981682F70E00B
:100890008981282F30E0C901880F991F820F931F8B
:1008A000880F991F880F991F8A5D9E4FFC01208138
:1008B000318142815381CB01880F991F860F971F89
:1008C000880F991F880F991F865D9E4FFC0120831A
:1008D0003183428353838981282F30E0C901880FF7
:1008E000991F820F931F880F991F880F991F825D90
:1008F0009E4F29E632E0FC013183208381E090E0C5
:10090000A0E0B0E0BC01CD010E9490000E94BE00BA
:06091000FFCFF894FFCFB9
:100916000000000200000000670000000000010067
:0A092600000090F0F0F60100000060
:00000001FF
