:100000000C9446000C9465000C9465000C946500FB
:100010000C9465000C9465000C9465000C946500CC
:100020000C9465000C9465000C9465000C946500BC
:100030000C9465000C94BB010C9465000C94650055
:100040000C9465000C9465000C9465000C9465009C
:100050000C9465000C9465000C9465000C9465008C
:100060000C9465000C9465000C9465000C9465007C
:100070000C9465000C9465000C9465000C9465006C
:100080000C9465000C9465000C94650011241FBE4F
:10009000CFEFD0E4DEBFCDBF11E0A0E0B1E0E4EAF5
:1000A000F6E000E00BBF02C007900D92A831B10747
:1000B000D9F721E0A8E1B1E001C01D92A932B20751
:1000C000E1F70E94C3020C9450030C940000CF93FC
:1000D000DF9300D01F92CDB7DEB789837B836A831D
:1000E00089818A3031F48A819B81BC018DE00E9434
:1000F000670080EC90E0FC018081882F90E08072A6
:100100009927892BB1F386EC90E02981FC012083AB
:1001100080E090E00F900F900F90DF91CF910895C5
:10012000CF93DF9300D000D0CDB7DEB769837A8359
:100130008B839C8389819A81AB81BC8180930E01E2
:1001400090930F01A0931001B093110180910E01C3
:1001500090910F01A0911001B091110180931901AC
:1001600090931A01A0931B01B0931C0100000F9003
:100170000F900F900F90DF91CF910895CF93DF9361
:10018000CDB7DEB781E890E02BE0FC01208388E862
:1001900090E02DE730E0FC01318320838FE690E092
:1001A00022E0FC01208384E890E0FC0111821082AF
:1001B00080910E0190910F01A0911001B091110159
:1001C0008093190190931A01A0931B01B0931C0115
:1001D0008FE590E02FE530E0F90120812068FC01F7
:1001E00020830000DF91CF910895CF93DF93CDB7A7
:1001F000DEB781E890E0FC0110820000DF91CF9132
:1002000008950F931F93CF93DF931F92CDB7DEB75F
:100210001982A6C08981282F30E0C901880F991F53
:10022000820F931F880F991F880F991F8D5D9E4F16
:10023000FC0120813181428153818981682F70E0E6
:10024000CB01880F991F860F971F880F991F880F62
:10025000991F815E9E4FFC0180819181A281B381B3
:10026000281739074A075B0708F449C08981082F16
:1002700010E08981282F30E0C901880F991F820F73
:10028000931F880F991F880F991F895D9E4FFC014E
:10029000408151818981282F30E0C901880F991F41
:1002A000820F931F880F991F880F991F835E9E4F9F
:1002B000FC0180819181FA0109959C01C801880F98
:1002C000991F800F911F880F991F880F991F835EB8
:1002D0009E4FFC01318320838981282F30E0C901A2
:1002E000880F991F820F931F880F991F880F991FDE
:1002F0008D5D9E4FFC0110821182128213828981D2
:10030000682F70E08981282F30E0C901880F991F7C
:10031000820F931F880F991F880F991F8D5D9E4F25
:10032000FC0180819181A281B38124E130E040E031
:1003300050E0280F391F4A1F5B1FCB01880F991F00
:10034000860F971F880F991F880F991F8D5D9E4FED
:10035000FC01208331834283538389818F5F8983AA
:100360008981882309F456CF00000F90DF91CF9147
:100370001F910F9108951F920F9200905F000F92AE
:10038000112400905B000F922F933F934F935F9344
:100390006F937F938F939F93AF93BF93EF93FF934D
:1003A000CF93DF93CDB7DEB78091190190911A01F9
:1003B000A0911B01B0911C010197A109B109809383
:1003C000190190931A01A0931B01B0931C01809115
:1003D000190190911A01A0911B01B0911C01892B68
:1003E0008A2B8B2B91F40E94010180910E01909138
:1003F0000F01A0911001B091110180931901909308
:100400001A01A0931B01B0931C010000DF91CF9152
:10041000FF91EF91BF91AF919F918F917F916F91DC
:100420005F914F913F912F910F9000925B000F9041
:1004300000925F000F901F901895CF93DF9300D02C
:10044000CDB7DEB79A83898389819A8181309105FE
:1004500069F1823091051CF4892B39F04DC082304E
:10046000910549F1039761F147C080E290E0FC01FA
:100470008081882F90E081709927892B29F481E071
:1004800090E09A8389833BC080E290E0FC01808108
:10049000882F90E082709927892B29F482E090E0E0
:1004A0009A8389832CC01A82198229C083E090E044
:1004B0009A83898324C083E090E09A8389831FC054
:1004C00080E290E0FC018081882F90E08270992783
:1004D000892B69F080E290E0FC018081882F90E018
:1004E00081709927892B19F080E090E002C083E0A9
:1004F00090E09A83898303C01A821982000089815F
:100500009A818130910561F0823091051CF4892B2C
:1005100001F126C08230910571F00397E1F020C00F
:10052000809112018E3FC9F08091120186958068FA
:100530008093120112C0809112018F3E81F0809150
:100540001201882F90E0880F991F8160809312011B
:1005500006C0000005C0000003C0000001C000008C
:1005600088E290E020911301FC0120838BE290E06F
:1005700020911201FC01208389819A810F900F90B4
:10058000DF91CF910895CF93DF931F92CDB7DEB760
:1005900081E290E0FC01108282E290E02FEFFC010A
:1005A000208387E290E02FEFFC01208388E290E037
:1005B000FC0110828AE290E02FEFFC0120838BE2A5
:1005C00090E0FC01108219828981282F30E0C90156
:1005D000880F991F820F931F880F991F880F991FEB
:1005E000835E9E4FFC01118210828981682F70E02A
:1005F00024E130E040E050E0CB01880F991F860FE6
:10060000971F880F991F880F991F815E9E4FFC01CD
:1006100020833183428353838981682F70E08981ED
:10062000282F30E0C901880F991F820F931F880F70
:10063000991F880F991F815E9E4FFC012081318197
:1006400042815381CB01880F991F860F971F880F16
:10065000991F880F991F8D5D9E4FFC012083318368
:10066000428353838981282F30E0C901880F991F65
:10067000820F931F880F991F880F991F895D9E4FC6
:100680002DE132E0FC013183208384E190E0A0E0A1
:10069000B0E0BC01CD010E9490000E94BE00FFCFDF
:0406A000F894FFCFFC
:1006A40000000002000000006700000000000100DC
:0806B4000000FEFF140000002D
:00000001FF
