:100000000C9446000C9465000C9465000C946500FB
:100010000C9465000C9465000C9465000C946500CC
:100020000C9465000C9465000C9465000C946500BC
:100030000C9465000C94BB010C9465000C94650055
:100040000C9465000C9465000C9465000C9465009C
:100050000C9465000C9465000C9465000C9465008C
:100060000C9465000C9465000C9465000C9465007C
:100070000C9465000C9465000C9465000C9465006C
:100080000C9465000C9465000C94650011241FBE4F
:10009000CFEFD0E4DEBFCDBF11E0A0E0B1E0E4EBF4
:1000A000F9E000E00BBF02C007900D92A632B10745
:1000B000D9F721E0A6E2B1E001C01D92A833B20752
:1000C000E1F70E94E7030C94D8040C940000CF934E
:1000D000DF9300D01F92CDB7DEB789837B836A831D
:1000E00089818A3031F48A819B81BC018DE00E9434
:1000F000670080EC90E0FC018081882F90E08072A6
:100100009927892BB1F386EC90E02981FC012083AB
:1001100080E090E00F900F900F90DF91CF910895C5
:10012000CF93DF9300D000D0CDB7DEB769837A8359
:100130008B839C8389819A81AB81BC8180930E01E2
:1001400090930F01A0931001B093110180910E01C3
:1001500090910F01A0911001B0911101809327019E
:1001600090932801A0932901B0932A0100000F90D9
:100170000F900F900F90DF91CF910895CF93DF9361
:10018000CDB7DEB781E890E02BE0FC01208388E862
:1001900090E02DE730E0FC01318320838FE690E092
:1001A00022E0FC01208384E890E0FC0111821082AF
:1001B00080910E0190910F01A0911001B091110159
:1001C0008093270190932801A0932901B0932A01DD
:1001D0008FE590E02FE530E0F90120812068FC01F7
:1001E00020830000DF91CF910895CF93DF93CDB7A7
:1001F000DEB781E890E0FC0110820000DF91CF9132
:1002000008950F931F93CF93DF931F92CDB7DEB75F
:100210001982A6C08981282F30E0C901880F991F53
:10022000820F931F880F991F880F991F8E5C9E4F16
:10023000FC0120813181428153818981682F70E0E6
:10024000CB01880F991F860F971F880F991F880F62
:10025000991F825D9E4FFC0180819181A281B381B3
:10026000281739074A075B0708F449C08981082F16
:1002700010E08981282F30E0C901880F991F820F73
:10028000931F880F991F880F991F8A5C9E4FFC014E
:10029000408151818981282F30E0C901880F991F41
:1002A000820F931F880F991F880F991F845D9E4F9F
:1002B000FC0180819181FA0109959C01C801880F98
:1002C000991F800F911F880F991F880F991F845DB8
:1002D0009E4FFC01318320838981282F30E0C901A2
:1002E000880F991F820F931F880F991F880F991FDE
:1002F0008E5C9E4FFC0110821182128213828981D2
:10030000682F70E08981282F30E0C901880F991F7C
:10031000820F931F880F991F880F991F8E5C9E4F25
:10032000FC0180819181A281B38121E030E040E035
:1003300050E0280F391F4A1F5B1FCB01880F991F00
:10034000860F971F880F991F880F991F8E5C9E4FED
:10035000FC01208331834283538389818F5F8983AA
:100360008981882309F456CF00000F90DF91CF9147
:100370001F910F9108951F920F9200905F000F92AE
:10038000112400905B000F922F933F934F935F9344
:100390006F937F938F939F93AF93BF93EF93FF934D
:1003A000CF93DF93CDB7DEB78091270190912801DD
:1003B000A0912901B0912A010197A109B109809367
:1003C000270190932801A0932901B0932A018091DD
:1003D000270190912801A0912901B0912A01892B30
:1003E0008A2B8B2B91F40E94010180910E01909138
:1003F0000F01A0911001B0911101809327019093FA
:100400002801A0932901B0932A010000DF91CF9128
:10041000FF91EF91BF91AF919F918F917F916F91DC
:100420005F914F913F912F910F9000925B000F9041
:1004300000925F000F901F901895CF93DF9300D02C
:10044000CDB7DEB79A838983809112019091130111
:1004500090931B0180931A018091140190911501D2
:1004600090931D0180931C018091160190911701BA
:1004700090931F0180931E018091180190911901A2
:10048000909321018093200189819A81892B19F011
:100490001A82198201C0000089819A81892B09F092
:1004A00009C090912B0181E0992309F080E08093AD
:1004B0002B01000088E290E020912B01222F30E0F8
:1004C000220F331F265E3E4FF90120813181FC014E
:1004D00020838BE290E020912B01222F30E0220F2D
:1004E000331F225E3E4FF90120813181FC012083C0
:1004F00089819A810F900F90DF91CF910895CF93CA
:10050000DF9300D0CDB7DEB79A83898389819A8142
:100510008230910509F459C08330910534F4009775
:1005200081F0019709F44CC08FC08430910509F423
:1005300056C0843091050CF44DC0059709F454C0A1
:1005400083C080E290E0FC018081882F90E0817080
:100550009927892B29F481E090E09A83898377C0D9
:1005600080E290E0FC018081882F90E082709927E2
:10057000892B29F482E090E09A83898368C080E225
:1005800090E0FC018081882F90E084709927892B6E
:1005900029F483E090E09A83898359C080E290E057
:1005A000FC018081882F90E088709927892B29F49D
:1005B00084E090E09A8389834AC01A82198247C0F6
:1005C00085E090E09A83898342C085E090E09A8339
:1005D00089833DC085E090E09A83898338C085E0B7
:1005E00090E09A83898333C080E290E0FC018081AF
:1005F000882F90E081709927892B09F180E290E0A3
:10060000FC018081882F90E082709927892BB9F0B6
:1006100080E290E0FC018081882F90E0847099272F
:10062000892B69F080E290E0FC018081882F90E0C6
:1006300088709927892B19F080E090E002C085E04E
:1006400090E09A83898303C01A821982000089810D
:100650009A818230910509F45CC0833091053CF4A5
:10066000009709F4A2C0019709F47AC0A9C08430A8
:10067000910551F18430910524F0059709F497C054
:100680009FC08091120190911301099709F491C0C4
:1006900080911401909115010F9709F48AC08091FF
:1006A0001201909113019695879590931301809371
:1006B0001201809114019091150196958795909360
:1006C00015018093140175C080911201909113015E
:1006D0008039910509F46FC0809114019091150142
:1006E000803F910509F467C0809112019091130138
:1006F000880F991F90931301809312018091140128
:10070000909115019695879590931501809314010A
:1007100052C080911601909117018137910509F41B
:100720004CC080911801909119018D37910509F401
:1007300044C08091160190911701880F991F816024
:1007400090931701809316018091180190911901DF
:10075000880F991F816090931901809318012DC013
:100760008091160190911701803F910541F1809190
:10077000180190911901863F910509F180911601A8
:1007800090911701969587958068909317018093B3
:1007900016018091180190911901969587958068AE
:1007A00090931901809318010AC0000009C000004D
:1007B00007C0000005C0000003C0000001C0000029
:1007C00089819A810F900F90DF91CF910895CF93F7
:1007D000DF931F92CDB7DEB781E290E0FC0110827B
:1007E00082E290E02FEFFC01208387E290E02FEF80
:1007F000FC01208388E290E0FC0110828AE290E014
:100800002FEFFC0120838BE290E0FC011082198223
:100810008981282F30E0C901880F991F820F931F0B
:10082000880F991F880F991F845D9E4FFC011182CC
:1008300010828981682F70E021E030E040E050E0D4
:10084000CB01880F991F860F971F880F991F880F5C
:10085000991F825D9E4FFC01208331834283538325
:100860008981682F70E08981282F30E0C901880FC5
:10087000991F820F931F880F991F880F991F825D00
:100880009E4FFC012081318142815381CB01880F31
:10089000991F860F971F880F991F880F991F8E5CCD
:1008A0009E4FFC0120833183428353838981282F0B
:1008B00030E0C901880F991F820F931F880F991F7D
:1008C000880F991F8A5C9E4F2DE132E0FC01318335
:1008D000208389818F5F89838981282F30E0C90136
:1008E000880F991F820F931F880F991F880F991FD8
:1008F000845D9E4FFC01118210828981682F70E017
:1009000021E030E040E050E0CB01880F991F860FD6
:10091000971F880F991F880F991F825D9E4FFC01BA
:1009200020833183428353838981682F70E08981DA
:10093000282F30E0C901880F991F820F931F880F5D
:10094000991F880F991F825D9E4FFC012081318184
:1009500042815381CB01880F991F860F971F880F03
:10096000991F880F991F8E5C9E4FFC012083318355
:10097000428353838981282F30E0C901880F991F52
:10098000820F931F880F991F880F991F8A5C9E4FB3
:100990002FE732E0FC013183208381E090E0A0E08A
:1009A000B0E0BC01CD010E9490000E94BE00FFCFCC
:0409B000F894FFCFE9
:1009B40000000002000000006700000000000100C9
:1009C40000009000F000F000F6009000F000F0004D
:0609D400F6000100000026
:00000001FF
